{
  "_format": "hh-sol-artifact-1",
  "contractName": "OffchainAggregator",
  "sourceName": "contracts/SimpleFeed.sol",
  "abi": [
    {
      "inputs": [
        {
          "internalType": "int192",
          "name": "_minAnswer",
          "type": "int192"
        },
        {
          "internalType": "int192",
          "name": "_maxAnswer",
          "type": "int192"
        },
        {
          "internalType": "uint8",
          "name": "_decimals",
          "type": "uint8"
        },
        {
          "internalType": "string",
          "name": "_description",
          "type": "string"
        }
      ],
      "stateMutability": "nonpayable",
      "type": "constructor"
    },
    {
      "anonymous": false,
      "inputs": [
        {
          "indexed": true,
          "internalType": "address",
          "name": "from",
          "type": "address"
        },
        {
          "indexed": true,
          "internalType": "address",
          "name": "to",
          "type": "address"
        }
      ],
      "name": "OwnershipTransferRequested",
      "type": "event"
    },
    {
      "anonymous": false,
      "inputs": [
        {
          "indexed": true,
          "internalType": "address",
          "name": "from",
          "type": "address"
        },
        {
          "indexed": true,
          "internalType": "address",
          "name": "to",
          "type": "address"
        }
      ],
      "name": "OwnershipTransferred",
      "type": "event"
    },
    {
      "inputs": [],
      "name": "acceptOwnership",
      "outputs": [],
      "stateMutability": "nonpayable",
      "type": "function"
    },
    {
      "inputs": [],
      "name": "decimals",
      "outputs": [
        {
          "internalType": "uint8",
          "name": "",
          "type": "uint8"
        }
      ],
      "stateMutability": "view",
      "type": "function"
    },
    {
      "inputs": [],
      "name": "description",
      "outputs": [
        {
          "internalType": "string",
          "name": "",
          "type": "string"
        }
      ],
      "stateMutability": "view",
      "type": "function"
    },
    {
      "inputs": [
        {
          "internalType": "uint256",
          "name": "_roundId",
          "type": "uint256"
        }
      ],
      "name": "getAnswer",
      "outputs": [
        {
          "internalType": "int256",
          "name": "",
          "type": "int256"
        }
      ],
      "stateMutability": "view",
      "type": "function"
    },
    {
      "inputs": [
        {
          "internalType": "uint80",
          "name": "_roundId",
          "type": "uint80"
        }
      ],
      "name": "getRoundData",
      "outputs": [
        {
          "internalType": "uint80",
          "name": "roundId",
          "type": "uint80"
        },
        {
          "internalType": "int256",
          "name": "answer",
          "type": "int256"
        },
        {
          "internalType": "uint256",
          "name": "updatedAt",
          "type": "uint256"
        },
        {
          "internalType": "uint80",
          "name": "answeredInRound",
          "type": "uint80"
        }
      ],
      "stateMutability": "view",
      "type": "function"
    },
    {
      "inputs": [],
      "name": "latestAnswer",
      "outputs": [
        {
          "internalType": "int256",
          "name": "",
          "type": "int256"
        }
      ],
      "stateMutability": "view",
      "type": "function"
    },
    {
      "inputs": [],
      "name": "latestRound",
      "outputs": [
        {
          "internalType": "uint256",
          "name": "",
          "type": "uint256"
        }
      ],
      "stateMutability": "view",
      "type": "function"
    },
    {
      "inputs": [],
      "name": "latestRoundData",
      "outputs": [
        {
          "internalType": "uint80",
          "name": "roundId",
          "type": "uint80"
        },
        {
          "internalType": "int256",
          "name": "answer",
          "type": "int256"
        },
        {
          "internalType": "uint256",
          "name": "updatedAt",
          "type": "uint256"
        }
      ],
      "stateMutability": "view",
      "type": "function"
    },
    {
      "inputs": [],
      "name": "latestTimestamp",
      "outputs": [
        {
          "internalType": "uint256",
          "name": "",
          "type": "uint256"
        }
      ],
      "stateMutability": "view",
      "type": "function"
    },
    {
      "inputs": [],
      "name": "maxAnswer",
      "outputs": [
        {
          "internalType": "int192",
          "name": "",
          "type": "int192"
        }
      ],
      "stateMutability": "view",
      "type": "function"
    },
    {
      "inputs": [],
      "name": "minAnswer",
      "outputs": [
        {
          "internalType": "int192",
          "name": "",
          "type": "int192"
        }
      ],
      "stateMutability": "view",
      "type": "function"
    },
    {
      "inputs": [],
      "name": "owner",
      "outputs": [
        {
          "internalType": "address",
          "name": "",
          "type": "address"
        }
      ],
      "stateMutability": "view",
      "type": "function"
    },
    {
      "inputs": [
        {
          "internalType": "address[]",
          "name": "_transmitters",
          "type": "address[]"
        }
      ],
      "name": "setTransmitters",
      "outputs": [],
      "stateMutability": "nonpayable",
      "type": "function"
    },
    {
      "inputs": [
        {
          "internalType": "address",
          "name": "_to",
          "type": "address"
        }
      ],
      "name": "transferOwnership",
      "outputs": [],
      "stateMutability": "nonpayable",
      "type": "function"
    },
    {
      "inputs": [
        {
          "internalType": "int192",
          "name": "_answer",
          "type": "int192"
        }
      ],
      "name": "transmit",
      "outputs": [],
      "stateMutability": "nonpayable",
      "type": "function"
    },
    {
      "inputs": [],
      "name": "transmitters",
      "outputs": [
        {
          "internalType": "address[]",
          "name": "",
          "type": "address[]"
        }
      ],
      "stateMutability": "view",
      "type": "function"
    }
  ],
  "bytecode": "0x60e06040523480156200001157600080fd5b5060405162000edb38038062000edb833981810160405260808110156200003757600080fd5b8151602083015160408085015160608601805192519496939591949391820192846401000000008211156200006b57600080fd5b9083019060208201858111156200008157600080fd5b82516401000000008111828201881017156200009c57600080fd5b82525081516020918201929091019080838360005b83811015620000cb578181015183820152602001620000b1565b50505050905090810190601f168015620000f95780820380516001836020036101000a031916815260200191505b506040525050600080546001600160a01b03191633179055507fff0000000000000000000000000000000000000000000000000000000000000060f883901b1660805280516200015190600290602084019062000181565b505050601791820b820b604090811b60a05290820b90910b901b60c0526005805463ffffffff1916905562000226565b828054600181600116156101000203166002900490600052602060002090601f016020900481019282601f10620001c457805160ff1916838001178555620001f4565b82800160010185558215620001f4579182015b82811115620001f4578251825591602001919060010190620001d7565b506200020292915062000206565b5090565b6200022391905b808211156200020257600081556001016200020d565b90565b60805160f81c60a05160401c60c05160401c610c756200026660003980610457528061071c5250806103e152806106ef5250806104055250610c756000f3fe608060405234801561001057600080fd5b50600436106101005760003560e01c80638205bf6a11610097578063b5ab58dc11610066578063b5ab58dc146102f9578063df61768814610316578063f2fde38b14610386578063feaf968c146103ac57610100565b80638205bf6a1461024d57806382b8ebc7146102555780638da5cb5b146102755780639a6fc8f51461029957610100565b806370da2f67116100d357806370da2f67146101665780637284e4161461016e57806379ba5097146101eb57806381411834146101f557610100565b806322adbc7814610105578063313ce5671461012657806350d25bcd14610144578063668a0f021461015e575b600080fd5b61010d6103df565b60408051601792830b90920b8252519081900360200190f35b61012e610403565b6040805160ff9092168252519081900360200190f35b61014c610427565b60408051918252519081900360200190f35b61014c610449565b61010d610455565b610176610479565b6040805160208082528351818301528351919283929083019185019080838360005b838110156101b0578181015183820152602001610198565b50505050905090810190601f1680156101dd5780820380516001836020036101000a031916815260200191505b509250505060405180910390f35b6101f361050c565b005b6101fd6105cf565b60408051602080825283518183015283519192839290830191858101910280838360005b83811015610239578181015183820152602001610221565b505050509050019250505060405180910390f35b61014c610630565b6101f36004803603602081101561026b57600080fd5b503560170b61065c565b61027d61084d565b604080516001600160a01b039092168252519081900360200190f35b6102c2600480360360208110156102af57600080fd5b503569ffffffffffffffffffff1661085c565b6040805169ffffffffffffffffffff9586168152602081019490945283810192909252909216606082015290519081900360800190f35b61014c6004803603602081101561030f57600080fd5b5035610996565b6101f36004803603602081101561032c57600080fd5b81019060208101813564010000000081111561034757600080fd5b82018360208201111561035957600080fd5b8035906020019184602083028401116401000000008311171561037b57600080fd5b5090925090506109d0565b6101f36004803603602081101561039c57600080fd5b50356001600160a01b0316610ae4565b6103b4610ba1565b6040805169ffffffffffffffffffff9094168452602084019290925282820152519081900360600190f35b7f000000000000000000000000000000000000000000000000000000000000000081565b7f000000000000000000000000000000000000000000000000000000000000000081565b60055463ffffffff16600090815260036020526040902054601790810b900b90565b60055463ffffffff1690565b7f000000000000000000000000000000000000000000000000000000000000000081565b60028054604080516020601f60001961010060018716150201909416859004938401819004810282018101909252828152606093909290918301828280156105025780601f106104d757610100808354040283529160200191610502565b820191906000526020600020905b8154815290600101906020018083116104e557829003601f168201915b5050505050905090565b6001546001600160a01b0316331461056b576040805162461bcd60e51b815260206004820152601660248201527f4d7573742062652070726f706f736564206f776e657200000000000000000000604482015290519081900360640190fd5b600080543373ffffffffffffffffffffffffffffffffffffffff19808316821784556001805490911690556040516001600160a01b0390921692909183917f8be0079c531659141344cd1fd0a4f28419497f9722a3daafe3b4186f6b6457e091a350565b6060600480548060200260200160405190810160405280929190818152602001828054801561050257602002820191906000526020600020905b81546001600160a01b03168152600190910190602001808311610609575050505050905090565b60055463ffffffff16600090815260036020526040902054600160c01b900467ffffffffffffffff1690565b6000805b6004548110156106a957336001600160a01b03166004828154811061068157fe5b6000918252602090912001546001600160a01b031614156106a157600191505b600101610660565b5060ff81166106e95760405162461bcd60e51b8152600401808060200182810382526021815260200180610c1f6021913960400191505060405180910390fd5b8160170b7f000000000000000000000000000000000000000000000000000000000000000060170b1315801561074557507f000000000000000000000000000000000000000000000000000000000000000060170b8260170b13155b610796576040805162461bcd60e51b815260206004820152601e60248201527f616e73776572206973206f7574206f66206d696e2d6d61782072616e67650000604482015290519081900360640190fd5b506005805463ffffffff808216600101811663ffffffff199092169190911791829055604080518082018252601794850b815267ffffffffffffffff4281166020808401918252959094166000908152600390955291909320925183549251909116600160c01b02930b77ffffffffffffffffffffffffffffffffffffffffffffffff9081167fffffffffffffffff0000000000000000000000000000000000000000000000009092169190911716919091179055565b6000546001600160a01b031681565b60008060008063ffffffff8569ffffffffffffffffffff1611156040518060400160405280600f81526020017f4e6f20646174612070726573656e740000000000000000000000000000000000815250906109355760405162461bcd60e51b81526004018080602001828103825283818151815260200191508051906020019080838360005b838110156108fa5781810151838201526020016108e2565b50505050905090810190601f1680156109275780820380516001836020036101000a031916815260200191505b509250505060405180910390fd5b5061093e610c07565b5050505063ffffffff8216600090815260036020908152604091829020825180840190935254601781810b810b810b808552600160c01b90920467ffffffffffffffff1693909201839052939493900b929091508390565b600063ffffffff8211156109ac575060006109cb565b5063ffffffff8116600090815260036020526040902054601790810b900b5b919050565b6000546001600160a01b03163314610a2f576040805162461bcd60e51b815260206004820152601660248201527f4f6e6c792063616c6c61626c65206279206f776e657200000000000000000000604482015290519081900360640190fd5b60045415610a76576004805480610a4257fe5b6000828152602090208101600019908101805473ffffffffffffffffffffffffffffffffffffffff19169055019055610a2f565b60005b81811015610adf576004838383818110610a8f57fe5b8354600181810186556000958652602095869020909101805473ffffffffffffffffffffffffffffffffffffffff19166001600160a01b0396909302949094013594909416179091555001610a79565b505050565b6000546001600160a01b03163314610b43576040805162461bcd60e51b815260206004820152601660248201527f4f6e6c792063616c6c61626c65206279206f776e657200000000000000000000604482015290519081900360640190fd5b6001805473ffffffffffffffffffffffffffffffffffffffff19166001600160a01b0383811691821790925560008054604051929316917fed8889f560326eb138920d842192f0eb3dd22b4f139c87a2c57538e05bae12789190a350565b60055463ffffffff16600080610bb5610c07565b50505063ffffffff8116600090815260036020908152604091829020825180840190935254601781810b810b810b808552600160c01b90920467ffffffffffffffff1693909201839052929392900b91565b60408051808201909152600080825260208201529056fe7472616e736d6974746572206e65656420746f20626520617574686f72697a6564a2646970667358221220cc2ffa40e9dd0ccebf052c6309b79799e1562e7793b291e2aec03f3f3f99c95364736f6c63430006090033",
  "linkReferences": {},
  "deployedLinkReferences": {}
}